:100000000C9459000C9481000C9481000C94810094
:100010000C9481000C9481000C9481000C9481005C
:100020000C9481000C9481000C9481000C9481004C
:100030000C9481000C9481000C9481000C9481003C
:100040000C9403070C9481000C94AE050C94F105FC
:100050000C9481000C9481000C9481000C9481001C
:100060000C9480030C948100000000070002010042
:100070000003040600000000000000000102040864
:100080001020408001020408102001020408102002
:10009000040404040404040402020202020203032E
:1000A0000303030300000000250028002B009D022D
:1000B000AD0611241FBECFEFD8E0DEBFCDBF11E0EB
:1000C000A0E0B1E0E6EFF6E102C005900D92A233A8
:1000D000B107D9F714E0A2E3B1E001C01D92A23B41
:1000E000B107E1F710E0C2EBD0E004C02297FE01B7
:1000F0000E94750BCE3AD107C9F70E94B8010C9443
:1001000079080C9400001F93CF93DF931F92CDB713
:10011000DEB7162FBC018BE393E049830E94850272
:10012000612F8BE393E00E9421024981642F8BE3CE
:1001300093E00E9421028BE393E00F90DF91CF9137
:100140001F910C949A028BE393E00E94610240E0BD
:1001500052EC61E070E08FEF93E00E942C0640E0EB
:100160006DE283E590E00E94830040E16DE283E56B
:1001700090E00E94830040E061E383E590E00E940C
:10018000830048E06DE283E590E00C948300EF92F9
:10019000FF920F931F93CF93DF9300D000D0CDB782
:1001A000DEB77C01162FBC018BE393E02B833C83ED
:1001B00049835A830E948502612F8BE393E00E945A
:1001C00021028BE393E00E949A02B7018BE393E054
:1001D0000E94850249815A81B7018BE393E00E9416
:1001E00078022B81022F3C81132F07C08BE393E011
:1001F0000E94CE01F80181938F018BE393E00E946E
:10020000C501892B99F78BE393E00F900F900F9026
:100210000F90DF91CF911F910F91FF90EF900C9471
:100220009A022F923F924F925F926F927F928F929B
:100230009F92AF92BF92CF92DF92EF92FF920F9375
:100240001F93CF93DF9300D000D0CDB7DEB760917E
:1002500000017091010180910201909103010E94BF
:10026000CA04882309F46DC0E0910001F0910101F6
:100270008081882309F453C064C0109232010E9427
:100280004D07562E472E382E292E22E333E046E026
:1002900050E062E383E590E00E94C700F0903303F2
:1002A000E12C809132036701C82A209135032A830B
:1002B000198280913403A980BA80A82A70903703EC
:1002C000612C809136034301882A61E070E080E070
:1002D00090E00E9477079F928F92BF92AF92DF9239
:1002E000CF922F923F924F925F9284E091E09F9342
:1002F0008F931F930F930E947C0862E371E08FEF4E
:1003000093E00E9477082B813C812F5F3F4F3C8315
:100310002B830FB6F894DEBF0FBECDBF04C01C8286
:100320001B8202E311E0E0910201F0910301808160
:1003300091812B813C81281739070CF49ECF1182C3
:1003400010820F900F900F900F90DF91CF911F911F
:100350000F91FF90EF90DF90CF90BF90AF909F9064
:100360008F907F906F905F904F903F902F90089567
:100370000E949D070E94A300C8EED5E00E941101D3
:100380002097E1F30E94E805F9CF20916B0330E05C
:1003900080916C03281B3109C901089580916C0379
:1003A00090916B03891750F4E82FF0E0E359FC4F6C
:1003B000208130E08F5F80936C0302C02FEF3FEF0E
:1003C000C9010895E0916C0380916B03E81730F444
:1003D000F0E0E359FC4F208130E002C02FEF3FEF07
:1003E000C90108950895CF92DF92EF92FF920F9383
:1003F0001F93CF93DF937C01CB018A0120914703A8
:10040000222391F0EB016B01C40ED51E09C0699146
:10041000D701ED91FC910190F081E02DC701099584
:10042000CC15DD05A1F703C0642F0E945703C80156
:10043000DF91CF911F910F91FF90EF90DF90CF90C0
:100440000895CF93DF931F92CDB7DEB769832091D4
:1004500047032223D1F020914803203240F021E0CD
:1004600030E0FC013383228320E030E015C080912E
:100470004903E82FF0E0E65BFC4F998190838F5FA2
:10048000809349038093480305C061E0CE01019643
:100490000E94570321E030E0C9010F90DF91CF9116
:1004A0000895FC011382128248EE53E060E070E090
:1004B000448355836683778386E191E091838083CB
:1004C000089510926C0310926B03109249031092DE
:1004D00048030C94A102862F413208F040E26DE6F9
:1004E00073E00E94BF0210926C0380936B03089527
:1004F00021E00C946B0281E08093470360936A03D0
:10050000109249031092480308950C947B020F93B4
:10051000062F21E0409148036AE473E080916A036A
:100520000E9404031092490310924803109247035B
:100530000F91089561E00C9487028BE393E00C9493
:1005400051021092960381E08093940310929303DA
:1005500061E082E10E94020861E083E10E940208FA
:10056000E9EBF0E080818E7F808380818D7F8083C6
:1005700088E48093B80085E48093BC0008954132FC
:1005800008F03FC0909196039111FCCF91E09093B9
:100590009603209394032FEF20938D0310929203E0
:1005A000242F2150209391039093950390919503CC
:1005B000880F892B8093950380919303813041F4B8
:1005C00010929303809195038093BB0085EC01C04A
:1005D00085EE8093BC00809196038130E1F3809199
:1005E0009203841710F44091920327E933E0FB0152
:1005F000D90102C08D9181938A2F821B8417D0F379
:1006000001C040E0842F08950F93413208F046C0A6
:10061000909196039111FCCF92E0909396030093F2
:1006200094039FEF90938D03109292034093910354
:10063000FB0167E973E0DB0102C091919D939A2F62
:10064000961B9417D0F31092950390919503880F01
:10065000892B8093950380919303813041F410920C
:100660009303809195038093BB0085EC01C085EED8
:100670008093BC00222321F0809196038230E1F325
:1006800080918D038F3F61F080918D03803251F016
:1006900080918D03803341F483E007C081E005C081
:1006A00080E003C082E001C084E00F9108956132D0
:1006B00098F420919603243089F460938F03FC0111
:1006C00087EB93E0DC0102C021912D932A2F281B98
:1006D0002617D0F380E0089581E0089582E0089520
:1006E00085ED8093BC008091BC0084FDFCCF10920E
:1006F0009603089585EC8093BC00109296030895AC
:100700001F920F920FB60F9211242F933F934F9386
:100710005F936F937F938F939F93AF93BF93EF9369
:10072000FF938091B900887F803609F49FC058F507
:10073000883209F45BC090F4803109F452C038F477
:10074000882309F4F8C0883009F0F9C04AC088311C
:1007500009F44CC0803209F0F2C05CC0803409F466
:100760006BC038F4803309F455C0883309F0E7C012
:1007700054C0803509F454C0883509F462C0883407
:1007800009F0DDC0DAC0883909F4CBC0A8F4883795
:1007900009F46CC038F4883609F468C0803709F071
:1007A000CEC064C0883809F4BCC0803909F464C084
:1007B000803809F0C4C060C0803B09F48AC038F4B6
:1007C000803A09F46BC0883A09F0B9C082C0803C15
:1007D00009F4ABC0883C09F4A8C0883B09F0AFC05D
:1007E0008DC0809195038093BB0012C090919203BD
:1007F00080919103981788F580919203E82FF0E09B
:10080000E956FC4F90819093BB008F5F80939203D9
:1008100085EC88C080938D0390C080938D0356C073
:10082000809192039091BB00E82FF0E0E956FC4FD5
:1008300090838F5F809392039091920380919103B4
:100840006DC0809192039091BB00E82FF0E0E956D3
:10085000FC4F90838F5F809392038091940381116A
:100860006CC081E08093930384EA60C083E080934E
:10087000960310928E03CCCF80918E03803208F0C5
:1008800050C080918E039091BB00E82FF0E0E552BC
:10089000FC4F90838F5F80938E03BACF80918E033D
:1008A000803230F4E0918E03F0E0E552FC4F10828C
:1008B0000E94700360918E03E091D703F091D803FA
:1008C00070E08BED93E0099510928E030E947A03FD
:1008D00036C084E0809396031092900310928F03A9
:1008E000E091D903F091DA03099580918F0381118A
:1008F00005C081E080938F031092B703809190032D
:10090000E82FF0E0E954FC4F90819093BB008F5F9B
:10091000809390039091900380918F03981708F42F
:1009200077CF85E88093BC000AC085EC8093BC003B
:100930001092960304C010928D030E947003FF91E1
:10094000EF91BF91AF919F918F917F916F915F9147
:100950004F913F912F910F900FBE0F901F901895C0
:10096000FC0120813181C901C0970A9788F4FB01FD
:1009700040815181EAE0E49FC001E59F900D112480
:10098000820F931FC097FB019183808381E00895BC
:1009900080E00895DF92EF92FF920F931F93CF9321
:1009A000DF937C01EB011092FB0381E0888380934D
:1009B000FC03DD24D3940091FD031091FE031AC0C3
:1009C000D092FB038FEF93E00E944105F8019183E1
:1009D00080832881222371F00A9711F418820AC0BB
:1009E0008091FC03813031F4B701C8010E94B0044A
:1009F0008093FC038FEF93E00E941205892B01F78F
:100A00008091FB03882329F081E09091FC039111F0
:100A100001C080E0DF91CF911F910F91FF90EF9087
:100A2000DF900895FC0184859585FC01E05CFF4F13
:100A300020813181FC01EE5BFF4F80819181281B79
:100A4000390B2F733327C9010895FC0184859585DF
:100A5000FC01E05CFF4F40815181FC01EE5BFF4FE8
:100A6000208131814217530741F00190F081E02D40
:100A7000E80FF91F208130E002C02FEF3FEFC901DE
:100A80000895FC0184859585FC01E05CFF4F408161
:100A90005181FC01EE5BFF4F2081318142175307EA
:100AA00081F0A081B181A80FB91F8C912081318183
:100AB0002F5F3F4F2F73332731832083282F30E060
:100AC00002C02FEF3FEFC9010895FC0181A18823E7
:100AD00029F0A489B5898C9186FFFBCF11A20895D6
:100AE000CF93DF93FC0126853785D901A05CBF4FEA
:100AF0008D919C91119701968F739927E901CE5B97
:100B0000DF4F4881598184179507D9F30D90BC9127
:100B1000A02DA20FB31F6C93A685B785A05CBF4F15
:100B200011969C938E93A689B7892C9181E090E0D1
:100B3000078C02C0880F991F0A94E2F7282B2C9388
:100B400081E081A30488F589E02D80818064808321
:100B500081E090E0DF91CF91089508951F920F9268
:100B60000FB60F9211242F933F934F938F939F9320
:100B7000EF93FF938091C00082FD1CC04091C6009E
:100B80008091A5049091A60401968F7399272091D6
:100B9000A7043091A8048217930771F0E091A5048F
:100BA000F091A604EB59FB4F40839093A6048093E9
:100BB000A50402C08091C600FF91EF919F918F9193
:100BC0004F913F912F910F900FBE0F901F9018954E
:100BD0008FEF93E00E941205892B11F00C94AD0564
:100BE00008951F920F920FB60F9211242F933F93E7
:100BF0008F939F93EF93FF93209161043091620450
:100C000080916304909164042817390731F480912E
:100C1000C1008F7D8093C10014C0E0916304F09106
:100C20006404EF5DFB4F2081809163049091640424
:100C300001968F73992790936404809363042093A3
:100C4000C600FF91EF919F918F913F912F910F904F
:100C50000FBE0F901F901895CF92DF92EF92FF92E8
:100C6000CF93DF93EC016A017B01411581EE5807B8
:100C700061057105F9F0EC89FD8981E090E008A03B
:100C800002C0880F991F0A94E2F7808360E079E040
:100C90008DE390E0A70196010E941A0B21503109C3
:100CA000410951095695479537952795211580E1BA
:100CB000380798F0EC89FD89108260E874E88EE1CD
:100CC00090E0A70196010E941A0B215031094109B9
:100CD00051095695479537952795E889F9893083C5
:100CE000EA89FB89208319A2EE89FF89408181E08E
:100CF00090E09C010C8C02C0220F331F0A94E2F793
:100D0000422B4083EE89FF8940819C010D8C02C0FB
:100D1000220F331F0A94E2F7422B4083EE89FF89AA
:100D200040819C010E8C02C0220F331F0A94E2F70F
:100D3000422B4083EE89FF8920810F8C02C0880FEF
:100D4000991F0A94E2F7809582238083DF91CF91E7
:100D5000FF90EF90DF90CF900895109202041092D0
:100D6000010488EE93E0A0E0B0E080930304909348
:100D70000404A0930504B093060486E291E09093E6
:100D800000048093FF0385E694E090930C04809325
:100D90000B0481E294E090930E0480930D0485ECA3
:100DA00090E09093100480930F0484EC90E0909373
:100DB00012048093110480EC90E0909314048093CB
:100DC000130481EC90E0909316048093150482EC58
:100DD00090E0909318048093170486EC90E0909331
:100DE0001A048093190484E080931B0483E08093A9
:100DF0001C0487E080931D0485E080931E0481E03D
:100E000080931F0408951F920F920FB60F92112422
:100E10002F933F938F939F93AF93BF938091A90498
:100E20009091AA04A091AB04B091AC043091B104AC
:100E3000232F2D5F2D3720F40196A11DB11D05C074
:100E4000232F2A570296A11DB11D2093B104809330
:100E5000A9049093AA04A093AB04B093AC0480912E
:100E6000AD049091AE04A091AF04B091B00401968E
:100E7000A11DB11D8093AD049093AE04A093AF0467
:100E8000B093B004BF91AF919F918F913F912F91FB
:100E90000F900FBE0F901F9018950F931F939FB741
:100EA000F8940091AD041091AE042091AF043091FC
:100EB000B00486B5A89B06C08F3F21F00F5F1F4F7F
:100EC0002F4F3F4F9FBF322F212F102F0027080F8A
:100ED000111D211D311D42E0000F111F221F331F64
:100EE0004A95D1F7B801C9011F910F910895CF928A
:100EF000DF92EF92FF92CF93DF936B017C010E9410
:100F00004D07EB010EC00E944D076C1B7D0B683E28
:100F1000734038F081E0C81AD108E108F108C851DF
:100F2000DC4FC114D104E104F10469F7DF91CF91E2
:100F3000FF90EF90DF90CF900895789484B5826011
:100F400084BD84B5816084BD85B5826085BD85B56D
:100F5000816085BDEEE6F0E0808181608083E1E81C
:100F6000F0E0108280818260808380818160808354
:100F7000E0E8F0E0808181608083E1EBF0E0808157
:100F800084608083E0EBF0E0808181608083EAE729
:100F9000F0E08081846080838081826080838081B2
:100FA000816080838081806880831092C100089571
:100FB000833069F028F48130A1F0823011F514C03B
:100FC0008630B1F08730C1F08430D9F404C080910C
:100FD00080008F7703C0809180008F7D8093800098
:100FE000089584B58F7702C084B58F7D84BD089540
:100FF0008091B0008F7703C08091B0008F7D809387
:10100000B00008950F931F93CF93DF931F92CDB736
:10101000DEB7282F30E0F901E859FF4F8491F9013C
:10102000E458FF4F1491F901E057FF4F049100235A
:10103000D1F0882321F069830E94D8076981E02FCD
:10104000F0E0EE0FFF1FEC55FF4F85919491DC010E
:101050009FB7F8948C91611103C01095812301C052
:10106000812B8C939FBF0F90DF91CF911F910F9198
:101070000895CF92DF92EF92FF920F931F93CF9339
:10108000DF936C01EB017A01E60EF71E00E010E041
:101090000BC06991D601ED91FC910190F081E02D9A
:1010A000C6010995080F191FCE15DF0591F7C80174
:1010B000DF91CF911F910F91FF90EF90DF90CF9034
:1010C00008956115710581F0DB010D900020E9F7AD
:1010D000AD0141505109461B570BDC01ED91FC91CC
:1010E0000280F381E02D099480E090E008950C9453
:1010F0006108F8940C94790BAEE0B0E0E2E8F8E017
:101100000C944A0B0D891E8986E08C831A8309830F
:101110008FEF9FE79E838D83CE014996AC016F8947
:10112000788DCE0101960E949E08EF81F885E00F30
:10113000F11F10822E96E4E00C94660BACE0B0E058
:10114000E4EAF8E00C943C0B7C016B018A01FC01A1
:1011500017821682838181FFC6C188248394912CD3
:101160008C0E9D1EF7019381F60193FD859193FFEF
:1011700081916F01882309F4B2C1853239F493FD5E
:10118000859193FF81916F01853229F4B70190E039
:101190000E94900AE7CF512C312C20E02032A8F495
:1011A0008B3261F028F4803251F0833271F40BC03D
:1011B0008D3239F0803349F4216028C022602460E8
:1011C00025C0286023C0206121C027FD27C0382FFB
:1011D00030533A3078F426FF06C0FAE05F9E300DB7
:1011E0001124532E13C08AE0389E300D1124332E63
:1011F00020620CC08E3221F426FD71C1206406C02D
:101200008C3611F4206802C0883641F4F60193FD53
:10121000859193FF81916F018111C0CF982F9554D3
:10122000933018F09052933028F40C5F1F4FFFE377
:10123000F9830DC0833631F0833771F0833509F0BF
:101240005EC023C0F801808189830E5F1F4F442454
:101250004394512C540115C03801F2E06F0E711CFB
:10126000F801A080B18026FF03C0652D70E002C0A8
:101270006FEF7FEFC5012C870E94850A2C01830147
:101280002C856FE7262E222218C03801F2E06F0E5F
:10129000711CF801A080B18026FF03C0652D70E0AD
:1012A00002C06FEF7FEFC5012C870E947A0A2C01E4
:1012B0002C8550E8252E222A830123FC1CC006C061
:1012C000B70180E290E00E94900A3A94832D90E06A
:1012D00048165906A8F30FC0F50127FC859127FE93
:1012E00081915F01B70190E00E94900A31103A9419
:1012F000F1E04F1A51084114510471F7EDC08436E2
:1013000011F0893641F5F80127FF07C0608171812E
:10131000828193810C5F1F4F08C060817181882793
:1013200077FD8095982F0E5F1F4F4FE6B42EB222A7
:1013300097FF09C090958095709561957F4F8F4F6D
:101340009F4FF0E8BF2A2AE030E0A4010E94BC0AC7
:10135000A82EA81843C0853731F43FEEB32EB22231
:101360002AE030E024C099EFB92EB2228F36B9F0CE
:1013700020F4883509F0B3C00DC0803721F08837DC
:1013800009F0ADC002C020E1B22AB4FE0BC084E077
:10139000B82A08C024FF09C0E6E0BE2A06C028E03B
:1013A00030E005C020E130E002C020E132E0F80189
:1013B000B7FE07C060817181828193810C5F1F4FEE
:1013C00006C06081718180E090E00E5F1F4FA40134
:1013D0000E94BC0AA82EA818FFE7BF22B6FE0BC0C9
:1013E0002B2D2E7FA51450F4B4FE0AC0B2FC08C009
:1013F0002B2D2E7E05C07A2C2B2D03C07A2C01C0FC
:10140000752C24FF0DC0FE01EA0DF11D8081803393
:1014100011F4297E09C022FF06C07394739404C09E
:10142000822F867809F0739423FD14C020FF0FC02B
:101430005A2C731460F4530C5718732C08C0B7015E
:1014400080E290E02C870E94900A73942C8573149C
:10145000B0F304C0731410F4371801C0312C24FF0A
:1014600012C0B70180E390E02C870E94900A2C857F
:1014700022FF1EC021FF03C088E590E002C088E77C
:1014800090E0B7010CC0822F867891F021FD02C058
:1014900080E201C08BE227FD8DE2B70190E00E945F
:1014A000900A06C0B70180E390E00E94900A5A9427
:1014B000A514C0F3AA94F401EA0DF11DB7018081CF
:1014C00090E00E94900AA110F5CF06C0B70180E21B
:1014D00090E00E94900A3A943110F8CF43CEF70181
:1014E0002681378102C02FEF3FEFC9012C96E2E140
:1014F0000C94580BFC010590615070400110D8F716
:10150000809590958E0F9F1F0895FC01615070404B
:1015100001900110D8F7809590958E0F9F1F089528
:101520000F931F93CF93DF938C01EB018B8181FD90
:1015300003C00FEF1FEF1AC082FF0DC02E813F8145
:101540008C819D812817390764F4E881F981019322
:10155000F983E88306C0E885F985802F0995892BF2
:1015600041F78E819F8101969F838E83C801DF9111
:10157000CF911F910F910895FA01AA27283051F1B8
:10158000203181F1E8946F936E7F6E5F7F4F8F4FB4
:101590009F4FAF4FB1E03ED0B4E03CD0670F781F13
:1015A000891F9A1FA11D680F791F8A1F911DA11DF8
:1015B0006A0F711D811D911DA11D20D009F4689431
:1015C0003F912AE0269F11243019305D3193DEF6D9
:1015D000CF010895462F4770405D4193B3E00FD08F
:1015E000C9F7F6CF462F4F70405D4A3318F0495D7A
:1015F00031FD4052419302D0A9F7EACFB4E0A6955D
:101600009795879577956795BA95C9F7009761057E
:10161000710508959B01AC010A2E069457954795D4
:1016200037952795BA95C9F7620F731F841F951FC9
:10163000A01D0895A1E21A2EAA1BBB1BFD010DC01F
:10164000AA1FBB1FEE1FFF1FA217B307E407F50772
:1016500020F0A21BB30BE40BF50B661F771F881F4E
:10166000991F1A9469F760957095809590959B01E4
:10167000AC01BD01CF0108952F923F924F925F922E
:101680006F927F928F929F92AF92BF92CF92DF9292
:10169000EF92FF920F931F93CF93DF93CDB7DEB7F7
:1016A000CA1BDB0B0FB6F894DEBF0FBECDBF09948B
:1016B0002A88398848885F846E847D848C849B84E2
:1016C000AA84B984C884DF80EE80FD800C811B81F0
:1016D000AA81B981CE0FD11D0FB6F894DEBF0FBE1F
:1016E000CDBFED010895EE0FFF1F0590F491E02DA1
:0616F0000994F894FFCFFD
:1016F60038033903256C752025642025642025646C
:101706000A00000000002102F301C501CE01E2013A
:10171600F201000000007005390812054105250593
:02172600650557
:00000001FF
