:100000000C9435000C945D000C945D000C945D0024
:100010000C945D000C945D000C945D000C945D00EC
:100020000C945D000C945D000C945D000C945D00DC
:100030000C945D000C945D000C945D000C945D00CC
:100040000C94FF020C945D000C94AA010C94ED0139
:100050000C945D000C945D000C945D000C945D00AC
:100060000C945D000C945D00A90211241FBECFEF1B
:10007000D8E0DEBFCDBF11E0A0E0B1E0ECE8FDE0EC
:1000800002C005900D92A232B107D9F712E0A2E2A8
:10009000B1E001C01D92A430B107E1F710E0CAE65B
:1000A000D0E004C02297FE010E94C006C836D107E6
:1000B000C9F70E949F000C94C4030C94000040E018
:1000C00052EC61E070E081E591E00C9428026091CF
:1000D00000017091010180910201909103010E9441
:1000E000C600882359F1E0910001F091010180815F
:1000F000811124C0E0910201F091030181818F936D
:1001000080818F9384E091E09F938F9385E291E0CB
:100110009F938F930E94C70365E271E081E591E0B0
:100120000E94C203E0910201F0910301118210824A
:100130000F900F900F900F900F900F9008950E94C6
:1001400049030E945F00C4EED1E00E94670020973F
:10015000E1F30E94E401F9CFFC0120813181C90162
:10016000C0970A9788F4FB0140815181EAE0E49F3F
:10017000C001E59F900D1124820F931FC097FB01D2
:100180009183808381E0089580E00895DF92EF926B
:10019000FF920F931F93CF93DF937C01EB0110929B
:1001A0004D0181E0888380934E01DD24D39400913A
:1001B0004F01109150011AC0D0924D0181E591E09C
:1001C0000E943D01F801918380832881222371F0F0
:1001D0000A9711F418820AC080914E01813031F4DF
:1001E000B701C8010E94AC0080934E0181E591E007
:1001F0000E940E01892B01F780914D01882329F07F
:1002000081E090914E01911101C080E0DF91CF918A
:100210001F910F91FF90EF90DF900895FC0184856E
:100220009585FC01E05CFF4F20813181FC01EE5B94
:10023000FF4F80819181281B390B2F733327C90110
:100240000895FC0184859585FC01E05CFF4F4081A9
:100250005181FC01EE5BFF4F208131814217530732
:1002600041F00190F081E02DE80FF91F208130E08E
:1002700002C02FEF3FEFC9010895FC0184859585E9
:10028000FC01E05CFF4F40815181FC01EE5BFF4FC0
:10029000208131814217530781F0A081B181A80FDD
:1002A000B91F8C91208131812F5F3F4F2F733327EE
:1002B00031832083282F30E002C02FEF3FEFC901A8
:1002C0000895FC0181A1882329F0A489B5898C9126
:1002D00086FFFBCF11A20895CF93DF93FC01268503
:1002E0003785D901A05CBF4F8D919C9111970196E4
:1002F0008F739927E901CE5BDF4F488159818417BD
:100300009507D9F30D90BC91A02DA20FB31F6C934C
:10031000A685B785A05CBF4F11969C938E93A68946
:10032000B7892C9181E090E0078C02C0880F991F5B
:100330000A94E2F7282B2C9381E081A30488F589A5
:10034000E02D80818064808381E090E0DF91CF9117
:10035000089508951F920F920FB60F9211242F93B4
:100360003F934F938F939F93EF93FF938091C000A0
:1003700082FD1CC04091C6008091F7019091F80168
:1003800001968F7399272091F9013091FA01821714
:10039000930771F0E091F701F091F801E954FE4FF5
:1003A00040839093F8018093F70102C08091C600CA
:1003B000FF91EF919F918F914F913F912F910F90CE
:1003C0000FBE0F901F90189581E591E00E940E01DD
:1003D000892B11F00C94A90108951F920F920FB66A
:1003E0000F9211242F933F938F939F93EF93FF933B
:1003F0002091B3013091B4018091B5019091B60183
:100400002817390731F48091C1008F7D8093C10096
:1004100014C0E091B501F091B601ED58FE4F208176
:100420008091B5019091B60101968F7399279093B1
:10043000B6018093B5012093C600FF91EF919F9183
:100440008F913F912F910F900FBE0F901F90189595
:10045000CF92DF92EF92FF92CF93DF93EC016A018C
:100460007B01411581EE580761057105F9F0EC89B2
:10047000FD8981E090E008A002C0880F991F0A94CE
:10048000E2F7808360E079E08DE390E0A7019601D8
:100490000E94650621503109410951095695479539
:1004A00037952795211580E1380798F0EC89FD896B
:1004B000108260E874E88EE190E0A70196010E9446
:1004C00065062150310941095109569547953795DF
:1004D0002795E889F9893083EA89FB89208319A265
:1004E000EE89FF89408181E090E09C010C8C02C084
:1004F000220F331F0A94E2F7422B4083EE89FF89D3
:1005000040819C010D8C02C0220F331F0A94E2F738
:10051000422B4083EE89FF8940819C010E8C02C0F2
:10052000220F331F0A94E2F7422B4083EE89FF89A2
:1005300020810F8C02C0880F991F0A94E2F78095E2
:1005400082238083DF91CF91FF90EF90DF90CF9057
:100550000895109254011092530188EE93E0A0E0A8
:10056000B0E08093550190935601A0935701B0934A
:10057000580185E191E0909352018093510187EBFE
:1005800091E090935E0180935D0183E791E0909309
:10059000600180935F0185EC90E09093620180930D
:1005A000610184EC90E0909364018093630180EC9E
:1005B00090E0909366018093650181EC90E09093C8
:1005C00068018093670182EC90E090936A018093C8
:1005D000690186EC90E090936C0180936B0184E05C
:1005E00080936D0183E080936E0187E080936F01BB
:1005F00085E08093700181E08093710108951F92DE
:100600000F920FB60F9211242F933F938F939F93C6
:10061000AF93BF938091FB019091FC01A091FD01EC
:10062000B091FE0130910302232F2D5F2D3720F46E
:100630000196A11DB11D05C0232F2A570296A11DA9
:10064000B11D209303028093FB019093FC01A093C2
:10065000FD01B093FE018091FF0190910002A091F5
:100660000102B09102020196A11DB11D8093FF010C
:1006700090930002A0930102B0930202BF91AF9148
:100680009F918F913F912F910F900FBE0F901F90D0
:100690001895789484B5826084BD84B5816084BDEA
:1006A00085B5826085BD85B5816085BDEEE6F0E0EB
:1006B000808181608083E1E8F0E010828081826047
:1006C0008083808181608083E0E8F0E080818160C8
:1006D0008083E1EBF0E0808184608083E0EBF0E0F8
:1006E000808181608083EAE7F0E08081846080839C
:1006F0008081826080838081816080838081806846
:1007000080831092C1000895CF92DF92EF92FF9202
:100710000F931F93CF93DF936C01EB017A01E60EE9
:10072000F71E00E010E00BC06991D601ED91FC913D
:100730000190F081E02DC6010995080F191FCE1513
:10074000DF0591F7C801DF91CF911F910F91FF90C5
:10075000EF90DF90CF9008956115710581F0DB0176
:100760000D900020E9F7AD0141505109461B570B90
:10077000DC01ED91FC910280F381E02D099480E091
:1007800090E008950C94AC03F8940C94C406AEE089
:10079000B0E0EDECF3E00C9495060D891E8986E03F
:1007A0008C831A8309838FEF9FE79E838D83CE010D
:1007B0004996AC016F89788DCE0101960E94E903BC
:1007C000EF81F885E00FF11F10822E96E4E00C9483
:1007D000B106ACE0B0E0EFEEF3E00C9487067C01EC
:1007E0006B018A01FC0117821682838181FFC6C1D9
:1007F00088248394912C8C0E9D1EF7019381F60121
:1008000093FD859193FF81916F01882309F4B2C113
:10081000853239F493FD859193FF81916F01853283
:1008200029F4B70190E00E94DB05E7CF512C312C71
:1008300020E02032A8F48B3261F028F4803251F0AD
:10084000833271F40BC08D3239F0803349F421606A
:1008500028C02260246025C0286023C0206121C0F8
:1008600027FD27C0382F30533A3078F426FF06C0D2
:10087000FAE05F9E300D1124532E13C08AE0389E9B
:10088000300D1124332E20620CC08E3221F426FD4F
:1008900071C1206406C08C3611F4206802C088360D
:1008A00041F4F60193FD859193FF81916F018111D0
:1008B000C0CF982F9554933018F09052933028F46D
:1008C0000C5F1F4FFFE3F9830DC0833631F0833790
:1008D00071F0833509F05EC023C0F80180818983FF
:1008E0000E5F1F4F44244394512C540115C038010E
:1008F000F2E06F0E711CF801A080B18026FF03C0EA
:10090000652D70E002C06FEF7FEFC5012C870E945C
:10091000D0052C0183012C856FE7262E222218C0DA
:100920003801F2E06F0E711CF801A080B18026FF43
:1009300003C0652D70E002C06FEF7FEFC5012C870B
:100940000E94C5052C012C8550E8252E222A830102
:1009500023FC1CC006C0B70180E290E00E94DB05CA
:100960003A94832D90E048165906A8F30FC0F5017C
:1009700027FC859127FE81915F01B70190E00E94DD
:10098000DB0531103A94F1E04F1A5108411451043B
:1009900071F7EDC0843611F0893641F5F80127FF73
:1009A00007C060817181828193810C5F1F4F08C0F5
:1009B00060817181882777FD8095982F0E5F1F4F8A
:1009C0004FE6B42EB22297FF09C09095809570959E
:1009D00061957F4F8F4F9F4FF0E8BF2A2AE030E0AC
:1009E000A4010E940706A82EA81843C0853731F439
:1009F0003FEEB32EB2222AE030E024C099EFB92EA8
:100A0000B2228F36B9F020F4883509F0B3C00DC09A
:100A1000803721F0883709F0ADC002C020E1B22A4A
:100A2000B4FE0BC084E0B82A08C024FF09C0E6E089
:100A3000BE2A06C028E030E005C020E130E002C058
:100A400020E132E0F801B7FE07C060817181828148
:100A500093810C5F1F4F06C06081718180E090E040
:100A60000E5F1F4FA4010E940706A82EA818FFE7DB
:100A7000BF22B6FE0BC02B2D2E7FA51450F4B4FE62
:100A80000AC0B2FC08C02B2D2E7E05C07A2C2B2D5F
:100A900003C07A2C01C0752C24FF0DC0FE01EA0DA5
:100AA000F11D8081803311F4297E09C022FF06C028
:100AB0007394739404C0822F867809F0739423FD95
:100AC00014C020FF0FC05A2C731460F4530C571835
:100AD000732C08C0B70180E290E02C870E94DB05F0
:100AE00073942C857314B0F304C0731410F4371886
:100AF00001C0312C24FF12C0B70180E390E02C87A5
:100B00000E94DB052C8522FF1EC021FF03C088E563
:100B100090E002C088E790E0B7010CC0822F867891
:100B200091F021FD02C080E201C08BE227FD8DE241
:100B3000B70190E00E94DB0506C0B70180E390E0BA
:100B40000E94DB055A94A514C0F3AA94F401EA0D9F
:100B5000F11DB701808190E00E94DB05A110F5CF67
:100B600006C0B70180E290E00E94DB053A943110A4
:100B7000F8CF43CEF7012681378102C02FEF3FEF38
:100B8000C9012C96E2E10C94A306FC01059061508A
:100B900070400110D8F7809590958E0F9F1F089593
:100BA000FC016150704001900110D8F7809590953C
:100BB0008E0F9F1F08950F931F93CF93DF938C0188
:100BC000EB018B8181FD03C00FEF1FEF1AC082FF85
:100BD0000DC02E813F818C819D812817390764F4D7
:100BE000E881F9810193F983E88306C0E885F985F6
:100BF000802F0995892B41F78E819F8101969F83D4
:100C00008E83C801DF91CF911F910F910895FA0152
:100C1000AA27283051F1203181F1E8946F936E7F3B
:100C20006E5F7F4F8F4F9F4FAF4FB1E03ED0B4E02C
:100C30003CD0670F781F891F9A1FA11D680F791F6D
:100C40008A1F911DA11D6A0F711D811D911DA11D7E
:100C500020D009F468943F912AE0269F112430198E
:100C6000305D3193DEF6CF010895462F4770405D29
:100C70004193B3E00FD0C9F7F6CF462F4F70405DD8
:100C80004A3318F0495D31FD4052419302D0A9F733
:100C9000EACFB4E0A6959795879577956795BA952D
:100CA000C9F700976105710508959B01AC010A2EF3
:100CB00006945795479537952795BA95C9F7620FCA
:100CC000731F841F951FA01D0895A1E21A2EAA1B51
:100CD000BB1BFD010DC0AA1FBB1FEE1FFF1FA217EC
:100CE000B307E407F50720F0A21BB30BE40BF50BE9
:100CF000661F771F881F991F1A9469F76095709572
:100D0000809590959B01AC01BD01CF0108952F9274
:100D10003F924F925F926F927F928F929F92AF928B
:100D2000BF92CF92DF92EF92FF920F931F93CF93D8
:100D3000DF93CDB7DEB7CA1BDB0B0FB6F894DEBF6F
:100D40000FBECDBF09942A88398848885F846E8495
:100D50007D848C849B84AA84B984C884DF80EE80DF
:100D6000FD800C811B81AA81B981CE0FD11D0FB6E8
:100D7000F894DEBF0FBECDBFED010895EE0FFF1F4B
:0C0D80000590F491E02D0994F894FFCF49
:100D8C0022012301696E7465726F203D2025640A6F
:100D9C0000000000006C0184030E013D0121016183
:020DAC00010044
:00000001FF
