:100000000C945D000C9485000C9485000C94850084
:100010000C9485000C9485000C9485000C9485004C
:100020000C9485000C9485000C9485000C9485003C
:100030000C9485000C9485000C9485000C9485002C
:100040000C94B1020C9485000C945C010C949F01FB
:100050000C9485000C9485000C9485000C9485000C
:100060000C9485000C94850000000007000201003C
:100070000003040600000000000000000102040864
:100080001020408001020408102001020408102002
:10009000040404040404040402020202020203032E
:1000A0000303030300000000250028002B000000CC
:1000B0000000240027002A005B0211241FBECFEF9E
:1000C000D8E0DEBFCDBF11E0A0E0B1E0E6E7F9E0A7
:1000D00002C005900D92AE31B107D9F711E0AEE143
:1000E000B1E001C01D92A13DB107E1F710E0CAEBFC
:1000F000D0E004C02297FE010E94B504C83BD1079E
:10010000C9F70E94B3000C948E040C94000061E0C7
:100110008DE00E94B00344E757EB61E070E08EE1B0
:1001200091E00C94DA0161E08DE00E94E80360E068
:1001300071E08EE191E00E947A0468EE73E080E065
:1001400090E00E94250360E08DE00E94E80367E0F4
:1001500071E08EE191E00E947A0468EE73E080E045
:1001600090E00C9425030E944B030E948700C6E98F
:10017000D1E00E9493002097E1F30E949601F9CF0D
:10018000FC0184859585FC01E05CFF4F2081318175
:10019000FC01EE5BFF4F80819181281B390B2F738F
:1001A0003327C9010895FC0184859585FC01E05C35
:1001B000FF4F40815181FC01EE5BFF4F2081318177
:1001C0004217530741F00190F081E02DE80FF91F2D
:1001D000208130E002C02FEF3FEFC9010895FC01FC
:1001E00084859585FC01E05CFF4F40815181FC01D5
:1001F000EE5BFF4F208131814217530781F0A081D0
:10020000B181A80FB91F8C91208131812F5F3F4FA1
:100210002F73332731832083282F30E002C02FEF44
:100220003FEFC9010895FC0181A1882329F0A48929
:10023000B5898C9186FFFBCF11A20895CF93DF93F0
:10024000FC0126853785D901A05CBF4F8D919C911B
:10025000119701968F739927E901CE5BDF4F488193
:10026000598184179507D9F30D90BC91A02DA20F49
:10027000B31F6C93A685B785A05CBF4F11969C9366
:100280008E93A689B7892C9181E090E0078C02C0FB
:10029000880F991F0A94E2F7282B2C9381E081A301
:1002A0000488F589E02D80818064808381E090E07E
:1002B000DF91CF91089508951F920F920FB60F927C
:1002C00011242F933F934F938F939F93EF93FF931B
:1002D0008091C00082FD1CC04091C6008091C40185
:1002E0009091C50101968F7399272091C601309195
:1002F000C7018217930771F0E091C401F091C50125
:10030000EC57FE4F40839093C5018093C40102C017
:100310008091C600FF91EF919F918F914F913F91F6
:100320002F910F900FBE0F901F9018958EE191E0C6
:100330000E94C000892B11F00C945B0108951F925C
:100340000F920FB60F9211242F933F938F939F9389
:10035000EF93FF9320918001309181018091820180
:10036000909183012817390731F48091C1008F7D66
:100370008093C10014C0E0918201F0918301E05CA0
:10038000FE4F2081809182019091830101968F73AD
:10039000992790938301809382012093C600FF9157
:1003A000EF919F918F913F912F910F900FBE0F90E2
:1003B0001F901895CF92DF92EF92FF92CF93DF9329
:1003C000EC016A017B01411581EE58076105710559
:1003D000F9F0EC89FD8981E090E008A002C0880F67
:1003E000991F0A94E2F7808360E079E08DE390E062
:1003F000A70196010E949104215031094109510938
:100400005695479537952795211580E1380798F03F
:10041000EC89FD89108260E874E88EE190E0A70124
:1004200096010E94910421503109410951095695C4
:10043000479537952795E889F9893083EA89FB89BB
:10044000208319A2EE89FF89408181E090E09C0120
:100450000C8C02C0220F331F0A94E2F7422B408318
:10046000EE89FF8940819C010D8C02C0220F331F51
:100470000A94E2F7422B4083EE89FF8940819C0178
:100480000E8C02C0220F331F0A94E2F7422B4083E6
:10049000EE89FF8920810F8C02C0880F991F0A9472
:1004A000E2F7809582238083DF91CF91FF90EF90D8
:1004B000DF90CF900895109221011092200188EED4
:1004C00093E0A0E0B0E08093220190932301A093F9
:1004D0002401B093250182E191E090931F01809364
:1004E0001E0184E891E090932B0180932A0180E41F
:1004F00091E090932D0180932C0185EC90E09093F6
:100500002F0180932E0184EC90E090933101809331
:10051000300180EC90E0909333018093320181ECC4
:1005200090E0909335018093340182EC90E09093B9
:1005300037018093360186EC90E0909339018093E7
:10054000380184E080933A0183E080933B0187E0A7
:1005500080933C0185E080933D0181E080933E01E2
:1005600008951F920F920FB60F9211242F933F936D
:100570008F939F93AF93BF938091C8019091C901CE
:10058000A091CA01B091CB013091D001232F2D5FF2
:100590002D3720F40196A11DB11D05C0232F2A5728
:1005A0000296A11DB11D2093D0018093C8019093A4
:1005B000C901A093CA01B093CB018091CC01909165
:1005C000CD01A091CE01B091CF010196A11DB11D29
:1005D0008093CC019093CD01A093CE01B093CF0135
:1005E000BF91AF919F918F913F912F910F900FBE2F
:1005F0000F901F9018950F931F939FB7F894009139
:10060000CC011091CD012091CE013091CF0186B562
:10061000A89B06C08F3F21F00F5F1F4F2F4F3F4F0A
:100620009FBF322F212F102F0027080F111D211DD2
:10063000311D42E0000F111F221F331F4A95D1F7D1
:10064000B801C9011F910F910895CF92DF92EF92E7
:10065000FF92CF93DF936B017C010E94FB02EB01C1
:100660000EC00E94FB026C1B7D0B683E734038F08D
:1006700081E0C81AD108E108F108C851DC4FC11463
:10068000D104E104F10469F7DF91CF91FF90EF907D
:10069000DF90CF900895789484B5826084BD84B54E
:1006A000816084BD85B5826085BD85B5816085BD6D
:1006B000EEE6F0E0808181608083E1E8F0E0108286
:1006C000808182608083808181608083E0E8F0E0C7
:1006D000808181608083E1EBF0E0808184608083B1
:1006E000E0EBF0E0808181608083EAE7F0E08081E8
:1006F0008460808380818260808380818160808348
:100700008081806880831092C1000895833069F0F1
:1007100028F48130A1F0823011F514C08630B1F098
:100720008730C1F08430D9F404C0809180008F7785
:1007300003C0809180008F7D80938000089584B5F0
:100740008F7702C084B58F7D84BD08958091B000FD
:100750008F7703C08091B0008F7D8093B0000895A3
:10076000CF93DF9390E0FC01E458FF4F4491FC01EC
:10077000E057FF4F8491882341F190E0880F991F43
:10078000FC01E255FF4F25913491D9018C559F4FC3
:10079000FC0185919491C82FD92F9FB7F8948C9123
:1007A000611106C0409584238C938881842308C0FE
:1007B000623041F4242F209582238C938881842BEE
:1007C000888302C0842B8C939FBFDF91CF910895C3
:1007D0000F931F93CF93DF931F92CDB7DEB7282FD0
:1007E00030E0F901E859FF4F8491F901E458FF4FD7
:1007F0001491F901E057FF4F04910023D1F08823B1
:1008000021F069830E9486036981E02FF0E0EE0FFA
:10081000FF1FEC55FF4F85919491DC019FB7F89431
:100820008C91611103C01095812301C0812B8C93A1
:100830009FBF0F90DF91CF911F910F910895CF929D
:10084000DF92EF92FF920F931F93CF93DF936C0190
:10085000EB017A01E60EF71E00E010E00BC0699193
:10086000D601ED91FC910190F081E02DC601099532
:10087000080F191FCE15DF0591F7C801DF91CF9141
:100880001F910F91FF90EF90DF90CF900895611529
:10089000710581F0DB010D900020E9F7AD014150B9
:1008A0005109461B570BDC01ED91FC910280F3814D
:1008B000E02D099480E090E00895DC01ED91FC9139
:1008C0000190F081E02D09940F931F93CF93DF9354
:1008D000EC016DE00E945D048C016AE0CE010E9493
:1008E0005D049C01200F311FC901DF91CF911F9141
:1008F0000F9108950F931F93CF93DF93EC010E9404
:1009000047048C01CE010E9464049801280F391F0E
:10091000C901DF91CF911F910F910895F8940C9424
:10092000B904A1E21A2EAA1BBB1BFD010DC0AA1F10
:10093000BB1FEE1FFF1FA217B307E407F50720F048
:10094000A21BB30BE40BF50B661F771F881F991FC3
:100950001A9469F760957095809590959B01AC010C
:10096000BD01CF010895EE0FFF1F0590F491E02D1A
:060970000994F894FFCF8A
:1009760041636365736F005370656E746F000000AA
:0E09860000001E011F04C000EF00D30013018B
:00000001FF
